:1000000012C02CC02BC0DFC129C028C027C026C009
:1000100025C024C023C022C021C020C01FC01EC0D4
:100020001DC01CC01BC011241FBECFE5D4E0DEBF25
:10003000CDBF10E0A0E6B0E0E2E5F6E002C005903A
:100040000D92A439B107D9F710E0A4E9B0E001C0DE
:100050001D92AC3AB107E1F7FDD1F9C2D1CF20E052
:1000600034E087FF02C0939A01C09398959A932F2A
:100070009A95F1F79598932F9A95F1F72F5F28307D
:1000800011F0880FEECF0895FF920F931F9394E025
:10009000F92EF82A8F2DE3DF969A08EB1BE0C801B2
:1000A0000197F1F796988F2D8B7FD9DF969AC8012B
:1000B0000197F1F796981F910F91FF9008951F9364
:1000C000182F807FE1DF812F8295807FDDDF1F91F8
:1000D0000895F5DF08951F93182F807F8160D4DF86
:1000E0001295107F812F8160CFDF1F910895F3DF7C
:1000F0000895EF92FF921F9381B3886681BB20ED34
:1001000037E04CE251E0CA010197F1F7215030404D
:10011000D1F783E0D4DF28E9E22E2AE3F22EC701EB
:100120000197F1F783E0CBDF18EC812F8A95F1F787
:1001300083E0C5DF812F8A95F1F782E0C0DF812F50
:100140008A95F1F788E2BBDF812F8A95F1F788E085
:10015000B6DF8CE291E00197F1F781E0B0DFC701F3
:100160000197F1F786E0ABDF812F8A95F1F78EE0FA
:10017000A6DF812F8A95F1F780E8A1DF1A95F1F7C4
:100180001F91FF90EF90089581E099DF0895EF921D
:10019000FF920F931F93CF93DF937C01162F862F2F
:1001A00080588035C8F4862F8ADF00E00FC01039F0
:1001B00021F480EC84DF10EC05C0103D19F481E0DF
:1001C0007EDF10E8888187DF0F5F1F5FE701C00FC8
:1001D000D11D8881882359F7DF91CF911F910F910D
:1001E000FF90EF900895FF920F931F93CF93DF93AB
:1001F000F0909100CF2DDD27C7FDD095C856DF4F79
:1002000000E010E005C0888166DF0F5F1F4F219777
:100210008F2D801B87FFF7CF8FEF9FEF909392007A
:1002200080939100DF91CF911F910F91FF900895DE
:1002300014BC86EA83BD8AE085BD89B7806889BF22
:10024000089524E630E0AC01429FC001439F900D29
:10025000529F900D112467E771E095D1862F835F3F
:1002600024E6829FC0011124892F990F990B0895CC
:100270008E3B21F090E0E5DF8093950008958E3B62
:1002800021F090E0DEDF8093960008958E3B21F010
:1002900090E0D7DF8093970008958EE1E9DF8EE14B
:1002A000EEDF8EE1F3DF88EB9BE02CE231E0F90139
:1002B0003197F1F70197D9F7089582E1D9DF88EBFB
:1002C0009BE02CE231E0F9013197F1F70197D9F782
:1002D00080E0D5DF88EB9BE02CE231E0F90131973B
:1002E000F1F70197D9F780E0D1DF88EB9BE02CE2B2
:1002F00031E0F9013197F1F70197D9F78CE2B8DFD6
:1003000088EB9BE02CE231E0F9013197F1F701979E
:10031000D9F788E2B4DF88EB9BE02CE231E0F90109
:100320003197F1F70197D9F788E2B0DF88EB9BE0CE
:100330002CE231E0F9013197F1F70197D9F70895EF
:100340008CE296DF88EB9BE02CE231E0F9013197FB
:10035000F1F70197D9F780E092DF88EB9BE02CE280
:1003600031E0F9013197F1F70197D9F780E08EDF9D
:1003700088EB9BE02CE231E0F9013197F1F701972E
:10038000D9F782E175DF88EB9BE02CE231E0F901DF
:100390003197F1F70197D9F788E271DF88EB9BE09D
:1003A0002CE231E0F9013197F1F70197D9F788E2B2
:1003B0006DDF88EB9BE02CE231E0F9013197F1F73A
:1003C0000197D9F708951F920F920FB60F9211243B
:1003D0008F939F939091950080919400981709F4C2
:1003E000C0989091960080919400981709F4C19854
:1003F0009091970080919400981709F4C298809189
:1004000094008F5F8093940080919400843629F447
:1004100010929400C09AC19AC29A9F918F910F90A6
:100420000FBE0F901F901895DF93CF93CDB7DEB717
:100430002D813E816F817885CB0180589040803539
:10044000910510F4C90102C0C90160E8A0DECF9196
:10045000DF9108951F934DDE00D080E690E0EDB768
:10046000FEB792838183E0DF8FEF87BB14BC86EAFF
:1004700083BD8AE085BD89B7806889BF78940F9075
:100480000F900BDF80E197E22CE231E0F901319728
:10049000F1F70197D9F711DF10E00FDF1F5F1A3076
:1004A000E1F710E04DDF1F5F1A30E1F7FFCF209139
:1004B0009100309192008FEF2F3F380739F484E795
:1004C00090E060E870E0B0DF80E00895F901E85660
:1004D000FF4F808121503040309392002093910053
:1004E0000895E0919100F0919200E331F10531F42B
:1004F00083E890E060E870E097DF08953196F0932C
:100500009200E0939100E856FF4F80830895EF92A8
:10051000FF920F931F937B018C016115710581057B
:10052000910519F480E3D7DD27C097FF0AC0109525
:100530000095F094E094E11CF11C011D111D8DE269
:10054000CADDC801B7012AE030E040E050E02ED01B
:10055000862F805DC6DFC801B7012AE030E040E0A9
:1005600050E024D0C901DA017C018D01E114F104CD
:100570000105110531F737DE1F910F91FF90EF90C4
:100580000895C5DF089597FB092E07260AD077FD49
:1005900004D027D006D000201AF4709561957F4FC3
:1005A0000895F6F7909581959F4F089597FB092E32
:1005B00005260ED057FD04D028D00AD0001C38F4F0
:1005C00050954095309521953F4F4F4F5F4F08957F
:1005D000F6F790958095709561957F4F8F4F9F4F5F
:1005E0000895AA1BBB1B51E107C0AA1FBB1FA6177A
:1005F000B70710F0A61BB70B881F991F5A95A9F7CC
:1006000080959095BC01CD010895A1E21A2EAA1BF8
:10061000BB1BFD010DC0AA1FBB1FEE1FFF1FA217B2
:10062000B307E407F50720F0A21BB30BE40BF50BAF
:10063000661F771F881F991F1A9469F76095709538
:10064000809590959B01AC01BD01CF010895F89470
:02065000FFCFDA
:1006520050726F6772616D20496E697469616C696D
:1006620073656400537461636B20697320656D70F8
:10067200747900537461636B2069732066756C6CC6
:0406820000FFFF0076
:00000001FF
